:04000000C3EF10F04A
:100800000054656D706572617475726500256420B1
:10081000432000001A50800B236E1A501A24296EB0
:1008200019AE15EF04F017EF04F018EF04F029806B
:100830002950D8B41EEF04F020EF04F033EF04F099
:100840002928D8A426EF04F028EF04F030EF04F0B4
:10085000000E176E000E186E000E196E000E1A6E46
:10086000198E3BEF04F0000E176E000E186E000E8E
:10087000196E000E1A6E1E50800B231A1E501E2475
:10088000286E1DAE46EF04F048EF04F049EF04F087
:1008900028802850D8B44FEF04F051EF04F064EFF3
:1008A00004F02828D8A457EF04F059EF04F061EFC2
:1008B00004F0000E1B6E000E1C6E000E1D6E000E6E
:1008C0001E6E1D8E6CEF04F0000E1B6E000E1C6E73
:1008D000000E1D6E000E1E6E2850D8B472EF04F08C
:1008E00074EF04F07CEF04F02950D8A47AEF04F000
:1008F0007CEF04F086EF04F0000E176E000E186E09
:10090000000E196E000E1A6E1EEF06F01D50170233
:10091000F3CF2EF0F4CF2FF02E50246E256A266AE6
:10092000276A2F502A6E2B6A2C6A2D6A1C501802D7
:10093000F3CF2EF0F4CF2FF02E502426000E2522D8
:10094000262227222F502A26000E2B222C222D224F
:100950001B501902F3CF2EF0F4CF2FF02E50242687
:10096000000E2522262227222F502A26000E2B2277
:100970002C222D2226C027F025C026F024C025F0E9
:10098000246A1B501802F3CF2EF0F4CF2FF02E5014
:1009900024262F502522000E2622000E27221C502E
:1009A0001702F3CF2EF0F4CF2FF02E5024262F5025
:1009B0002522000E2622000E272226C027F025C061
:1009C00026F024C025F0246A1B501702F3CF2EF026
:1009D000F4CF2FF02E5024262F502522000E262251
:1009E000000E27221D501802F3CF2EF0F4CF2FF067
:1009F0002E502A262F502B22000E2C22000E2D22A4
:100A00001C501902F3CF2EF0F4CF2FF02E502A26CF
:100A10002F502B22000E2C22000E2D221D501902C9
:100A2000F3CF2EF0F4CF2FF02E501F6E2F50206EEC
:100A3000216A226A21C022F020C021F01FC020F0CC
:100A40001F6A1F502A2620502B2221502C22225070
:100A50002D2224C01FF025C020F026C021F027C081
:100A600022F0190E39EF05F0D890223221322032CF
:100A70001F32E82E34EF05F01F502A2620502B227B
:100A800021502C2222502D2226C027F025C026F0EE
:100A900024C025F0246A285029C01FF0206A1F2690
:100AA000000E2022820E1F242E6EFF0E20202F6E9D
:100AB0006FEF05F0D8902A362B362C362D3627AE20
:100AC00064EF05F066EF05F067EF05F02A80D89037
:100AD00024362536263627362E06D8A02F062CAEED
:100AE00074EF05F076EF05F05AEF05F0000E286E72
:100AF00027AE7DEF05F07FEF05F0A3EF05F0FF0EC9
:100B000024141F6EFF0E2514206EFF0E2614216E76
:100B10007F0E2714226E1F50201021102210D8B4EF
:100B200094EF05F096EF05F09AEF05F0010E286EB0
:100B3000A3EF05F02AA09FEF05F0A1EF05F0A3EFCA
:100B400005F096EF05F02850D8B4A9EF05F0ABEF0B
:100B500005F0CFEF05F0010E2A26000E2B222C22E5
:100B60002D222DA0B6EF05F0B8EF05F0CFEF05F080
:100B70002AC01FF02BC020F02CC021F02DC022F085
:100B800022342232213220321F321FC02AF020C0EC
:100B90002BF021C02CF022C02DF02E4A2F2A2FBE80
:100BA000DAEF05F02F5008E12E28D8A0DAEF05F093
:100BB000DCEF05F0E6EF05F0000E2A6E000E2B6E5E
:100BC000800E2C6E7F0E2D6E14EF06F02FBEF3EF0D
:100BD00005F02F5006E12E04D8B0F1EF05F0F3EF49
:100BE00005F0FFEF05F0000E2A6E000E2B6E000ED2
:100BF0002C6E000E2D6E000E236E14EF06F02EC02C
:100C000029F0FF0E2A16FF0E2B167F0E2C16000E53
:100C10002D1629A00EEF06F010EF06F011EF06F0EA
:100C20002C8ED89029302D6E23502D122AC017F00B
:100C30002BC018F02CC019F02DC01AF0120004506F
:100C4000800B116E04500424186E03AE2AEF06F0D8
:100C50002CEF06F02DEF06F018801850D8B433EFC3
:100C600006F035EF06F04AEF06F01828D8A43BEF5F
:100C700006F03DEF06F045EF06F0000E016E000EA7
:100C8000026E000E036E000E046E038E000E046EE4
:100C900052EF06F0000E016E000E026E000E036EA3
:100CA000000E046E0850800B111A08500824196EAB
:100CB00007AE5DEF06F05FEF06F060EF06F019801B
:100CC0001950D8B466EF06F068EF06F07DEF06F035
:100CD0001928D8A46EEF06F070EF06F078EF06F052
:100CE000000E056E000E066E000E076E000E086EFA
:100CF000078E000E086E85EF06F0000E056E000EE2
:100D0000066E000E076E000E086E055006100710E6
:100D10000810D8A48EEF06F090EF06F0A8EF06F0CA
:100D2000000E016E000E026E000E036E000E046EC9
:100D3000800E03127F0E04121150041201C001F044
:100D400002C002F003C003F004C004F0EBEF07F0B0
:100D50001850D8A4AEEF06F0B0EF06F0BAEF06F0E8
:100D6000000E016E000E026E000E036E000E046E89
:100D7000EBEF07F0195018C009F00A6A095E000E7F
:100D80000A5A7F0E0924126E000E0A20136E01C04B
:100D90000DF002C00EF003C00FF004C010F0000E02
:100DA000016E000E026E000E036E000E046E000E49
:100DB000146E000E156E000E166E000E176E000EED
:100DC000196E1BEF07F01950D8B4E9EF06F0EBEFFE
:100DD00006F002EF07F0D8900D360E360F361036BB
:100DE000D890013602360336043617AEFAEF06F015
:100DF000FCEF06F0FDEF06F00180D89014361536B2
:100E00001636173605500D5C06500E5807500F5811
:100E100008501058D8A00FEF07F011EF07F01AEFA5
:100E200007F0178C05500D5E06500E5A07500F5AEA
:100E30000850105A192A190E196421EF07F023EFF0
:100E400007F0E3EF06F00D500E100F101010D8B49D
:100E50002CEF07F02EEF07F046EF07F0148046EF77
:100E600007F0D890013602360336043617AE3BEF52
:100E700007F03DEF07F03EEF07F00180D890143601
:100E80001536163617361206D8A0130603AE4BEFEA
:100E900007F04DEF07F031EF07F0000E196E17AEB7
:100EA00054EF07F056EF07F07AEF07F0FF0E141437
:100EB000096EFF0E15140A6EFF0E16140B6E7F0ED0
:100EC00017140C6E09500A100B100C10D8B46BEFED
:100ED00007F06DEF07F071EF07F0010E196E7AEF72
:100EE00007F001A076EF07F078EF07F07AEF07F050
:100EF0006DEF07F01950D8B480EF07F082EF07F0DC
:100F0000A6EF07F0010E0126000E022203220422A2
:100F100004A08DEF07F08FEF07F0A6EF07F001C0F8
:100F200009F002C00AF003C00BF004C00CF00C344E
:100F30000C320B320A32093209C001F00AC002F049
:100F40000BC003F00CC004F0124A132A13BEB1EF19
:100F500007F0135008E11228D8A0B1EF07F0B3EF63
:100F600007F0BEEF07F0000E136E1268000E016E60
:100F7000000E026E000E036E000E046E13BECBEF69
:100F800007F0135006E11204D8B0C9EF07F0CBEF19
:100F900007F0D9EF07F0000E136E000E126E000E70
:100FA000016E000E026E000E036E000E046E000E47
:100FB000116E12C018F018A0E0EF07F0E2EF07F092
:100FC000E5EF07F0038EE6EF07F0039ED8901830A8
:100FD000046E9CEF06F012001EC036F01FC037F002
:100FE00020C038F021C039F022C03AF023C03BF0D5
:100FF00024C03CF025C03DF03DBE01EF08F004EFF9
:1010000008F0010E05EF08F0000E346E356A34501A
:101010003510D8B40EEF08F010EF08F020EF08F00C
:101020003D1E3C1E3B1E3A1E391E381E371E366CB6
:10103000000E3722382239223A223B223C223D221E
:10104000000165BF26EF08F028EF08F029EF08F04F
:101050005E9265BF36EF08F0655106E16405D8B0D1
:1010600034EF08F036EF08F03CEF08F0000E316E78
:10107000010E306E40EF08F064C030F065C031F012
:1010800062C032F063C033F034503510D8A44BEF57
:1010900008F04DEF08F054EF08F05EA452EF08F0AE
:1010A00054EF08F057EF08F03206D8A03306000ED0
:1010B0003F6E1F0E3E6E000E856FDBEF08F03E06A2
:1010C000D8A03F06660E3E24D96E000E3F20DA6E91
:1010D00036C001F037C002F038C003F039C004F068
:1010E0003AC005F03BC006F03CC007F03DC008F038
:1010F0000A0E096E000E0A6E000E0B6E000E0C6ECC
:10110000000E0D6E000E0E6E000E0F6E000E106EB5
:101110008EEC0CF001C026F002C027F003C028F0CE
:1011200004C029F005C02AF006C02BF007C02CF03F
:1011300008C02DF026C013F028C014F035EC10F0D4
:101140001350300FDF6E3006D8A031063206D8A01B
:10115000330636C001F037C002F038C003F039C0A2
:1011600004F03AC005F03BC006F03CC007F03DC0BB
:1011700008F00A0E096E000E0A6E000E0B6E000ECD
:101180000C6E000E0D6E000E0E6E000E0F6E000E39
:10119000106E0FEC0BF001C036F002C037F003C048
:1011A00038F004C039F005C03AF006C03BF007C083
:1011B0003CF008C03DF03FBEE6EF08F03F5008E1CC
:1011C0003E04D8A0E6EF08F0E8EF08F018EF09F0C9
:1011D00036503710381039103A103B103C103D1083
:1011E000D8A4F5EF08F0F7EF08F05FEF08F031BE94
:1011F00004EF09F0315006E13004D8B002EF09F0F5
:1012000004EF09F05FEF08F033BE0FEF09F0335041
:1012100008E13204D8A00FEF09F011EF09F018EF40
:1012200009F05EB216EF09F018EF09F05FEF08F071
:1012300034503510D8A41FEF09F021EF09F028EF42
:1012400009F05EA426EF09F028EF09F046EF09F057
:101250003E06D8A03F0634503510D8A432EF09F02E
:1012600034EF09F03AEF09F0000E2F6E2B0E2E6EC0
:101270003EEF09F0000E2F6E2D0E2E6E660E3E24F0
:10128000D96E000E3F20DA6E2EC0DFFF1CC011F0B9
:101290001DC012F0660E3E24136E000E3F20146E29
:1012A00032C015F033C016F0B6EC0EF011C01CF0D1
:1012B00012C01DF0120042C0D9FF43C0DAFFDECFDA
:1012C000F6FFDDCFF7FF0800F550250AD8A46BEF35
:1012D00009F06DEF09F019EF0AF042C0D9FF43C0E1
:1012E000DAFFDE2A000EDD22000E0001636F000E21
:1012F000626F62C05EF063C05FF06469656942C09E
:10130000D9FF43C0DAFFDECFF6FFDDCFF7FF0800DD
:10131000F550640AD8B48FEF09F091EF09F0A3EF0C
:1013200009F042C0D9FF43C0DAFFDECFF6FFDDCFC0
:10133000F7FF0800F550690AD8A4A1EF09F0A3EF60
:1013400009F0E3EF09F042C0D9FF43C0DAFFDE2A1B
:10135000000EDD2244C0D9FF45C0DAFFDFCF46F0E2
:10136000020EDE26DFCF47F0000EDD2246C0D9FF99
:1013700047C0DAFFDECF48F0DDCF49F0000E49BEAE
:10138000FF0E4A6E4B6E4C6E4D6E4E6E4F6E40C0F1
:101390001CF041C01DF048C01EF049C01FF04AC0FB
:1013A00020F04BC021F04CC022F04DC023F04EC0C5
:1013B00024F04FC025F0ECEC07F01CC040F01DC03D
:1013C00041F034EF0AF042C0D9FF43C0DAFFDECF6C
:1013D000F6FFDDCFF7FF0800F550250AD8A4F3EF9C
:1013E00009F0F5EF09F00CEF0AF042C0D9FF43C055
:1013F000DAFFDE2A000EDD22000E026E250E016EDF
:1014000040C003F041C004F051EC0EF0000E416EFC
:10141000010E406E34EF0AF042C0D9FF43C0DAFF3C
:10142000DE2A000EDD22000E416E000E406E34EF0B
:101430000AF042C0D9FF43C0DAFFDECFF6FFDDCFAE
:10144000F7FF0800F550016E026A40C003F041C08A
:1014500004F051EC0EF042C0D9FF43C0DAFFDE2A9F
:10146000000EDD2206EF0AF01200116E1150D8B402
:101470003CEF0AF03EEF0AF060EF0AF00CBE45EFD9
:101480000AF043EF0AF060EF0AF009C00DF00AC05D
:101490000EF00BC00FF00CC010F00D1E0E1E0F1E34
:1014A000101E0D2A000E0E220F2210220DC013F066
:1014B0000EC014F00FC015F010C016F068EF0AF05F
:1014C00009C013F00AC014F00BC015F00CC016F0E0
:1014D00009500A100B100C10D8A471EF0AF073EF2A
:1014E0000AF07DEF0AF0000E096E000E0A6E000E83
:1014F0000B6E000E0C6E0EEF0BF0960E126E87EF59
:101500000AF0122AD8901632153214321332000E15
:1015100013140D6E000E14140E6E000E15140F6EC3
:10152000FE0E1614106E0D500E100F101010D8A4D1
:101530009CEF0AF09EEF0AF081EF0AF0ACEF0AF0A0
:10154000122A010E1326000E142215221622D890FC
:101550001632153214321332000E13140D6E000EB3
:1015600014140E6E000E15140F6EFF0E1614106E6E
:101570000D500E100F101010D8A4C1EF0AF0C3EFD9
:101580000AF0A0EF0AF0CBEF0AF01206D89013365B
:1015900014361536163615BED0EF0AF0D2EF0AF023
:1015A000DAEF0AF0020E1260D8EF0AF0DAEF0AF072
:1015B000C5EF0AF012B0DFEF0AF0E1EF0AF0E2EF58
:1015C0000AF0159ED890123212C00DF00E6A0F6A02
:1015D000106A0DC010F00F6A0E6A0D6A0D501312DA
:1015E0000E5014120F501512105016121150D8B47C
:1015F000FCEF0AF0FEEF0AF006EF0BF00CBE05EF71
:101600000BF003EF0BF006EF0BF0168E13C009F092
:1016100014C00AF015C00BF016C00CF01200000E3A
:10162000126E10BE18EF0BF016EF0BF02AEF0BF056
:10163000101E0F1E0E1E0D1E0C1E0B1E0A1E096C08
:10164000000E0A220B220C220D220E220F22102243
:10165000010E126E08BE31EF0BF02FEF0BF043EFCF
:101660000BF0081E071E061E051E041E031E021E8A
:10167000016C000E02220322042205220622072208
:101680000822010E121A20EE13F0070EDE6AE80699
:10169000FDE209500A100B100C100D100E100F1067
:1016A0001010D8B456EF0BF058EF0BF0AAEF0BF078
:1016B000010E116E66EF0BF0D89009360A360B3624
:1016C0000C360D360E360F361036112A10AE6BEF73
:1016D0000BF06DEF0BF05CEF0BF0D8901336143677
:1016E000153616361736183619361A360950015C73
:1016F0000A5002580B5003580C5004580D5005580E
:101700000E5006580F50075810500858D8A08BEFAD
:101710000BF08DEF0BF09EEF0BF00950015E0A50BD
:10172000025A0B50035A0C50045A0D50055A0E50D1
:10173000065A0F50075A1050085A1380D89010328A
:101740000F320E320D320C320B320A320932112EA8
:101750006DEF0BF01250D8B4B0EF0BF0B2EF0BF00E
:10176000C2EF0BF01A1E191E181E171E161E151E8C
:10177000141E136C000E1422152216221722182292
:1017800019221A2213C001F014C002F015C003F090
:1017900016C004F017C005F018C006F019C007F015
:1017A0001AC008F0120001C00BF002C00CF0055086
:1017B0000610D8A4DEEF0BF0E0EF0BF0E2EF0BF039
:1017C0008DEF0CF00BC0D9FF0CC0DAFF03C0DFFFB8
:1017D00005500B24076E06500C20086EFF0E0724E0
:1017E000D96EFF0E0820DA6E03C0DFFF065007E156
:1017F000030E055CD8B0FFEF0BF001EF0CF003EF28
:101800000CF08DEF0CF020EE01F00B50D9260C50AF
:10181000DA2203C0DFFF20EE02F00B50D9260C5075
:10182000DA2203C0DFFF05500B24076E06500C20A0
:10183000086EFE0E0724D96EFF0E0820DA6E03C074
:10184000DFFF05500B24076E06500C20086EFD0EBE
:101850000724D96EFF0E0820DA6E03C0DFFF0650A2
:1018600007E1070E055CD8B038EF0CF03AEF0CF04A
:101870003CEF0CF08DEF0CF020EE03F00B50D9266E
:101880000C50DA2203C0DFFF05500B24076E065010
:101890000C20086EFC0E0724D96EFF0E0820DA6EAD
:1018A00003C0DFFF065007E1090E055CD8B05BEF0F
:1018B0000CF05DEF0CF05FEF0CF08DEF0CF00BC057
:1018C00007F00CC008F0071E081E074A082A030E7E
:1018D0000714096E0A6A09500B260A500C22095097
:1018E000055E0A50065AFC0E0516FF0E061684EF1A
:1018F0000CF00BC0D9FF0CC0DAFF03C0DFFF0506F8
:10190000D8A006060B4A0C2A05500610D8A48BEF67
:101910000CF08DEF0CF079EF0CF01200000E126E4F
:1019200008BE97EF0CF095EF0CF0A9EF0CF0081E35
:10193000071E061E051E041E031E021E016C000E5D
:101940000222032204220522062207220822010E77
:10195000126E10BEB0EF0CF0AEEF0CF0C0EF0CF05A
:10196000101E0F1E0E1E0D1E0C1E0B1E0A1E096CD5
:10197000000E0A220B220C220D220E220F22102210
:1019800009500A100B100C100D100E100F10101033
:10199000D8B4CDEF0CF0CFEF0CF017EF0DF0010E37
:1019A000116EDDEF0CF0D89009360A360B360C3686
:1019B0000D360E360F361036112A10AEE2EF0CF04F
:1019C000E4EF0CF0D3EF0CF00950015C0A50025820
:1019D0000B5003580C5004580D5005580E50065823
:1019E0000F50075810500858D8A0F9EF0CF0FBEF33
:1019F0000CF00BEF0DF00950015E0A50025A0B502B
:101A0000035A0C50045A0D50055A0E50065A0F50E6
:101A1000075A1050085AD89010320F320E320D3239
:101A20000C320B320A320932112EE4EF0CF0125054
:101A3000D8B41DEF0DF01FEF0DF02FEF0DF0081EC5
:101A4000071E061E051E041E031E021E016C000E4C
:101A5000022203220422052206220722082201C0B4
:101A600001F002C002F003C003F004C004F005C09E
:101A700005F006C006F007C007F008C008F0120025
:101A8000720ED36E90EC10F0D0EC10F0000E0A6ED7
:101A9000010E0B6E080E0C6E000E55EC10F0000ED1
:101AA000026E000E016E17EC0FF001C009F002C0CB
:101AB0000AF0000E0ABEFF0E0B6E0C6E010E35EC26
:101AC0000AF009C017F00AC018F00BC019F00CC0DA
:101AD0001AF0F60E1B6E280E1C6E9C0E1D6E400E2C
:101AE0001E6E0AEC04F017C098F018C099F019C0E7
:101AF0009AF01AC09BF098C001F099C002F09AC009
:101B000003F09BC004F0000E056E000E066E200E62
:101B1000076E410E086E1FEC06F001C098F002C07F
:101B200099F003C09AF004C09BF08E0E586E000E20
:101B3000596E0D0E5A6E080E5B6E98C001F099C07A
:101B400002F09AC003F09BC004F0CEEC0DF001C08F
:101B50005CF002C05DF0C5EC0FF0000E0A6E8E0E58
:101B60000B6E000E0C6E010E55EC10F0000E026EA6
:101B70000A0E016EEEEC0FF08E0E016E000E026E7C
:101B8000000E046E000E036E000E066E0A0E056E49
:101B9000D3EC0BF046EF0DF000EF00F0033404340B
:101BA0000A6E0A50D8A4D7EF0DF0D9EF0DF0E3EF8D
:101BB0000DF0000E016E000E026E000E036E000EA0
:101BC000046E50EF0EF001C005F002C006F003C035
:101BD00007F004C008F0200EF3EF0DF0D8900832A3
:101BE000073206320532E82EEEEF0DF00550096E91
:101BF000038EFF0E0116FF0E0216FF0E0316000ED7
:101C00000416960E0A5E0ABE0AEF0EF008EF0EF0FA
:101C100020EF0EF00A50800A970FD8B012EF0EF0A6
:101C200014EF0EF016EF0EF0D9EF0DF0D89004324D
:101C30000332023201320A3E16EF0EF038EF0EF098
:101C40001F0E0A6426EF0EF028EF0EF030EF0EF0B4
:101C5000D9EF0DF0D89001360236033604360A0665
:101C60000A50D8A436EF0EF038EF0EF02AEF0EF03F
:101C70000950D8B43EEF0EF040EF0EF048EF0EF0F2
:101C8000041E031E021E016C000E02220322042207
:101C900001C001F002C002F003C003F004C004F070
:101CA000120003500410D8B458EF0EF05AEF0EF0A3
:101CB00063EF0EF003500410D8A461EF0EF063EF51
:101CC0000EF068EF0EF00150DAEC10F0B5EF0EF008
:101CD00020EE04F00350D9260450DA22DE50DE1044
:101CE000D8B475EF0EF077EF0EF092EF0EF020EE15
:101CF00004F00350D9260450DA2210EE02F003500B
:101D0000E1260450E222DE50E65CE650800A096ECD
:101D1000DE50800A0958D8B090EF0EF092EF0EF026
:101D2000B5EF0EF020EE02F00350D9260450DA226F
:101D3000DECF05F0DDCF06F003C0D9FF04C0DAFF27
:101D4000DECF07F0DDCF08F005500724D96E06502E
:101D50000820DA6E01C0DFFF20EE02F00350D92622
:101D60000450DA22DE2A000EDD2212005EA0BBEF54
:101D70000EF0BDEF0EF0C7EF0EF013C00AF014C066
:101D80000BF011C00CF012C00DF013EC10F016BEE9
:101D9000CCEF0EF0CEEF0EF0D4EF0EF015C01AF02F
:101DA00016C01BF0D8EF0EF0000E1B6E000E1A6E60
:101DB000000E196E000E186EEAEF0EF0000E026EA5
:101DC000200E016E11C003F012C004F051EC0EF0B1
:101DD000184A192A1A50185C1950800A176E1B509D
:101DE000800A1758D8A0F7EF0EF0F9EF0EF0DEEFEB
:101DF0000EF05EB0FEEF0EF000EF0FF00AEF0FF006
:101E000013C00AF014C00BF011C00CF012C00DF09A
:101E100013EC10F013C001F014C002F075EC10F0D8
:101E20001A500124116E1B500220126E120001C0C4
:101E300003F0D8900336D89003363C0E0316C250F8
:101E4000C30B0310C26EC2B228EF0FF02CEF0FF0DD
:101E5000036A032A2DEF0FF0036A010E046E032AB2
:101E600034EF0FF0D8900436032E32EF0FF0C2B0EB
:101E70003CEF0FF040EF0FF0056A052A41EF0FF03D
:101E8000056A010E066E052A48EF0FF0D890063657
:101E9000052E46EF0FF006500410C212C2B253EFE7
:101EA0000FF055EF0FF04EEF0FF0C350C4CF03F01B
:101EB000046A03C004F0036A0310076E0450086E3E
:101EC00007C001F008C002F0120052C056F053C023
:101ED00057F0000E0001616F000E606F83EF0FF08E
:101EE00050C040F051C041F0560E426E000E436E9D
:101EF00054C044F055C045F05BEC09F0405000017F
:101F000060274150612356C0F6FF57C0F7FF080015
:101F1000F5500009D8A48FEF0FF091EF0FF070EF9C
:101F20000FF060C050F061C051F01200ACEF0FF044
:101F300008C0F6FF09C0F7FFF86A070EF76403D080
:101F40000800F55005D0F6CFE1FFF7CFE2FFE750EC
:101F5000A7EC10F0084A092A08C0F6FF09C0F7FFED
:101F6000F86A070EF76403D00800F55005D0F6CFE5
:101F7000E1FFF7CFE2FFE7500009D8A4C2EF0FF06E
:101F8000C4EF0FF098EF0FF012005C0E0001866FA7
:101F9000000E876F58C088F059C089F0000E8B6F13
:101FA000000E8A6F000E8D6F000E8C6F880E506EC3
:101FB000000E516E5AC052F05BC053F0860E546E44
:101FC000000E556E65EC0FF000018A515824D96E51
:101FD0008B515920DA6E000EDF6E1200000E046E77
:101FE000000E036E07EF10F0000E066E000E056E79
:101FF000054A062A065009E1510E055CD8A003EFF8
:1020000010F005EF10F0F8EF0FF0034A042A035028
:10201000015C04500258D8B010EF10F012EF10F02D
:10202000F4EF0FF01200000E106E000E0F6E24EF92
:1020300010F00EC001F0026A0CC003F00DC004F0F5
:1020400051EC0EF00F4A102A0F500A24D96E10508E
:102050000B20DA6EDF500E6E0E50D8A432EF10F067
:1020600034EF10F019EF10F0120014BE42EF10F030
:10207000145006E11304D8B040EF10F042EF10F016
:1020800050EF10F013C015F014C016F0151E161EF8
:10209000154A162A15C013F016C014F054EF10F0AC
:1020A00013C013F014C014F012000D6E0D50D8A41C
:1020B0005CEF10F05EEF10F067EF10F00A500F0BBE
:1020C00080090E6E0E50B5EC10F06EEF10F00A5055
:1020D0000F0BC0090E6E0E50B5EC10F00BC008F0DF
:1020E0000CC009F096EC0FF0120001C003F002C022
:1020F00004F07DEF10F0014A022A01C0D9FF02C0AE
:10210000DAFFDF50D8A487EF10F089EF10F07BEFF3
:1021100010F00350015C016E04500258026E120070
:10212000000E956E000E936E000E026E140E016E80
:10213000EEEC0FF0380EB5EC10F0010EB5EC10F02F
:102140000C0EB5EC10F0060EB5EC10F01200076E98
:1021500007C08AFF8C808C8200F08C92000E026E89
:10216000010E016EEEEC0FF01200076E07C08AFF41
:102170008C908C8200F08C92000E026E030E016E29
:10218000EEEC0FF0120000EE60F0260EEE6AE806AC
:10219000FDE15F6A5E6A000EF86E000140EF0DF02F
:1021A0009268000EC16E920EC06E000EC46E000EDC
:0621B000C36E12001200D4
:020000040020DA
:08000000FFFFFFFFFFFFFFFF00
:020000040030CA
:0E00000000091F1EFF0381FF0FC00FE00F401D
:00000001FF
