:040000006CEF08F0A9
:100800000001000A006400E803102754656D70655C
:100810007261747572650025642043200000140E17
:10082000176E000E186E9AD0250E1D18D8B409D078
:1008300010C0D9FF11C0DAFF1DC0DFFF104A112A16
:100840008DD0000E196E04D097D015D087D013D05C
:1008500012C0F6FF13C0F7FF124A132A0800F5CFA3
:100860001DF01D50000AD8B487D0640AD8B403D054
:100870000D0AD8A473D017C0D9FF18C0DAFFDECF95
:100880001BF0DDCF1CF0020E1726000E18221CAE46
:1008900007D0030E19121B6C1C1ED8B01C2A00D0E6
:1008A000010E1D6E050E1D18D8B416D001D014D03F
:1008B0001D50020D010EF324F66E080EF420F76EA3
:1008C0000900F5501B5C0900F5501C58D8A004D055
:1008D00001D002D01D2AE6D719C016F0030E161655
:1008E000D8B409D010C0D9FF11C0DAFF2D0EDF6EC9
:1008F000104A112A00D01DC01AF02AD01A50020D39
:10090000010EF324F66E080EF420F76E0900F5CF01
:1009100003F00A00F5CF04F01BC001F01CC002F088
:1009200040EC07F001C008F002C009F0000E0B6EA9
:100930000A0E0A6E98EC07F00850300F1D6E10C0BA
:10094000D9FF11C0DAFF1DC0DFFF104A112A00D005
:100950001A061A28D8B402D0D1D700D012C0F6FF98
:1009600013C0F7FF124A132A0800F5CF1DF01D50DF
:10097000D8B402D059D700D010C0D9FF11C0DAFFC7
:10098000000EDF6E00D012000FC013F0146A156A5B
:100990000E34133601E314801350166E1650D8A48B
:1009A00002D00ED06CD012C013F0146A156A113444
:1009B000133601E3148013501B6E1B50D8A407D0CC
:1009C000000E0D6E000E0E6E000E0F6E58D01B50F6
:1009D0007B0F16260FC01BF012501B1A800E1B1621
:1009E0000E8E118EFF0E1016FF0E1116000E12162F
:1009F000000E176E000E186E000E196E070E1A6E9E
:100A000000D00DA007D010501726115018221250F8
:100A1000192200D0D8900F320E320D32D8901036F5
:100A2000113612361A2EEDD700D0090E1A6E00D0EC
:100A30000DA007D01050172611501822125019225D
:100A400000D0D8900F320E320D32D89019321832B1
:100A500017321A2EEDD700D017C001F018C002F0DF
:100A600019C003F016C004F01BC005F09EEC06F0A0
:100A700001C00DF002C00EF003C00FF000D0120054
:100A8000720ED36E2FEC08F062EC08F000D0000E6E
:100A90000A6E0B0E0B6E080E0C6E000EFBEC07F0D0
:100AA000000E026E000E016E01EC07F001C009F0AD
:100AB00002C00AF0DDEC07F009C00DF00AC00EF02C
:100AC0000BC00FF0290E106E9C0E116E400E126EB0
:100AD000C4EC04F00DC028F00EC029F00FC02AF0BD
:100AE00028C009F029C00AF02AC00BF0000E0C6ED5
:100AF000200E0D6E410E0E6E2DEC06F009C028F092
:100B00000AC029F00BC02AF01E0E106E000E116EE6
:100B1000170E126E080E136E28C001F029C002F0E5
:100B20002AC003F0BAEC05F001C014F002C015F0C1
:100B30000FEC04F0000E0A6E1E0E0B6E000E0C6E13
:100B4000010EFBEC07F0000E026E0A0E016EBEEC09
:100B500007F01E0E016E000E026E000E046E000EF7
:100B6000036E000E066E0A0E056E18EC08F08FD7A5
:100B700000EF00F003C005F0066A076A023405368C
:100B800001E3068005500F6E0F50D8A402D039D073
:100B900063D0170E056E01C006F002C007F003C057
:100BA00008F00528096E04D0D890083207320632C2
:100BB000092EFAD706500A6E028EFF0E0116FF0E9E
:100BC0000216000E031601500B6E02500C6E0350FD
:100BD0000D6E0E6A8E0E0F5E0FAE10D00F50800A93
:100BE0008F0FD8B003D00DD037D000D0D8900E32B0
:100BF0000D320C320B320F3EF9D719D0170E0F649D
:100C000011D0000E016E000E026E000E036E000E7B
:100C1000046E22D007D0D8900B360C360D360E3627
:100C20000F0600D00F50D8B402D0F5D700D00A502C
:100C3000D8B409D00E1E0D1E0C1E0B6C000E0C221B
:100C40000D220E2200D00BC001F00CC002F00DC02E
:100C500003F00EC004F000D012000BC00FF0106AB9
:100C6000116A0A340F3601E310800F50166E1650C9
:100C7000D8A402D00ED061D00EC00FF0106A116A55
:100C80000D340F3601E310800F50176E1750D8A4A3
:100C900007D0000E096E000E0A6E000E0B6E4DD0CE
:100CA000000E136E000E146E000E156E1750890F95
:100CB000165E0BC017F00E50171A800E17160A8E0C
:100CC000FF0E0916FF0E0A16000E0B160D8EFF0EF4
:100CD0000C16FF0E0D16000E0E16180E126E00D01A
:100CE000D8901336143615360C50095C0D500A583E
:100CF0000E500B58D8A007D00C50095E0D500A5A60
:100D00000E500B5A1380D89009360A360B36122E25
:100D1000E7D700D013C001F014C002F015C003F0F3
:100D200016C004F017C005F09EEC06F001C009F0F3
:100D300002C00AF003C00BF000D012000450D8B477
:100D400005D0015002100310D8A40ED0000E016E81
:100D5000000E026E000E036E53D006D0042AD89007
:100D600003320232013200D0000E0114066E000E72
:100D70000214076EFE0E0314086E065007100810CA
:100D8000D8B40ED0EBD70CD0042A010E0126000EE9
:100D90000222000E0322D89003320232013200D028
:100DA000000E0114066E000E0214076EFF0E0314EF
:100DB000086E065007100810D8B408D0E5D706D042
:100DC0000406D89001360236033600D002BE04D0A5
:100DD000020E0460F5D700D004B002D0029E00D00D
:100DE000D8900432045003120550D8B402D0038EB8
:100DF00000D001C001F002C002F003C003F000D037
:100E0000120001C003F0D8900336D89003363C0E90
:100E10000316C250C30B0310C26EC2A203D0036AF2
:100E2000032A01D0036A010E046E032A02D0D8906F
:100E30000436032EFCD7C2A003D0056A052A01D0D0
:100E4000056A010E066E052A02D0D8900636052ED8
:100E5000FCD706500410C21200D0C2B2FED7C35055
:100E6000C4CF03F0046A03C004F0036A0310076EE2
:100E70000450086E07C001F008C002F000D0120054
:100E8000000E066E000E056E03500410D8B421D07B
:100E9000010E076E05D0D89003360436072A00D01D
:100EA00004BE02D0F8D700D0D890053606360350DD
:100EB000015C04500258D8A006D00350015E0450D3
:100EC000025A058000D0D89004320332072EECD7A6
:100ED00000D005C001F006C002F0120015D008C015
:100EE000F6FF09C0F7FFF86A070EF76403D00800A1
:100EF000F55005D0F6CFE9FFF7CFEAFFEF5046EC0B
:100F000008F0084A092A00D008C0F6FF09C0F7FF18
:100F1000F86A070EF76403D00800F55005D0F6CF45
:100F2000E9FFF7CFEAFFEF500009D8A4D8D71200A5
:100F30000A500B10D8B41DD0010E0C6E05D0D890FD
:100F40000A360B360C2A00D00BBE02D0F8D700D0E0
:100F50000A50085C0B500958D8A005D00A50085E0A
:100F60000B50095A00D0D8900B320A320C2EF0D711
:100F700000D008C008F009C009F01200000E046E8D
:100F8000000E036E13D0000E066E000E056E0650A6
:100F90000AE1510E055CD8B006D001D004D0054A54
:100FA000062AF5D700D0034A042A00D00350015C7A
:100FB00004500258D8B0E7D71200000E0C6E0AAEEB
:100FC00007D0096C0A1ED8B00A2A010E0C6E00D098
:100FD00009C001F00AC002F0036A8E0E046E0CC054
:100FE00005F09EEC06F001C009F002C00AF003C053
:100FF0000BF000D012000D6E000E0E6E0D50D8A436
:1010000008D00A500F0B80090E6E0E5054EC08F0F9
:1010100008D00A500F0BC0090E6E0E5054EC08F0A9
:1010200000D00BC008F00CC009F06EEC07F0120005
:1010300001C007F002C008F009D007C0D9FF08C0FE
:10104000DAFF03C0DFFF074A082A00D00506D8A050
:1010500006060528F2E10628D8A4EFD71200000EF4
:10106000956E000E936E000E026E140E016EBEECB5
:1010700007F0380E54EC08F0010E54EC08F00C0E9A
:1010800054EC08F0060E54EC08F01200076E07C08E
:101090008AFF8C808C8200F08C92000E026E010E12
:1010A000016EBEEC07F01200076E07C08AFF8C903D
:1010B0008C8200F08C92000E026E030E016EBEEC6C
:1010C00007F012009268000EC16E920EC06E000E04
:1010D000C46E000EC36E1200000EF86E000140EFE9
:0210E00005F019
:020000040020DA
:08000000FFFFFFFFFFFFFFFF00
:020000040030CA
:0E00000000091F1EFF0381FF0FC00FE00F401D
:00000001FF
